:020000040800F2
:1000000070A10020DD340008A5160008A71600081E
:10001000AB160008AF160008B31600080000000079
:10002000000000000000000000000000B7160008FB
:10003000B916000800000000BB160008BD16000835
:10004000F7340008F7340008F7340008F7340008E4
:10005000F7340008F7340008F7340008F7340008D4
:10006000F7340008F7340008F7340008F7340008C4
:10007000F7340008F7340008F7340008F7340008B4
:10008000F7340008F7340008F7340008F7340008A4
:10009000F7340008F7340008F7340008F734000894
:1000A000F7340008F7340008F7340008F734000884
:1000B000F7340008B32F0008395A0008F734000855
:1000C000F7340008F7340008F7340008F734000864
:1000D000F734000853340008F7340008F7340008F8
:1000E000F7340008F7340008F7340008F734000844
:1000F000F7340008F7340008F7340008F734000834
:10010000F7340008F7340008F7340008F734000823
:10011000F7340008F7340008F7340008F734000813
:10012000F7340008F7340008F7340008F734000803
:1001300000F002F800F078F80AA090E8000C824481
:100140008344AAF10107DA4501D100F06DF8AFF25E
:10015000090EBAE80F0013F0010F18BFFB1A43F0A5
:10016000010318479CB00300BCB003000A444FF0E1
:10017000000C10F8013B13F0070408BF10F8014B06
:100180001D1108BF10F8015B641E05D010F8016B4B
:10019000641E01F8016BF9D113F0080F1EBF10F8AF
:1001A000014BAD1C0C1B09D16D1E58BF01F801CBD2
:1001B000FAD505E014F8016B01F8016B6D1EF9D555
:1001C0009142D6D37047000000230024002500266A
:1001D000103A28BF78C1FBD8520728BF30C148BFAA
:1001E0000B60704766290EF0788764290DF04A820B
:1001F00075290DF0478278290DF0808263290DF072
:10020000AC8673290DF0B186002070471FB50DF044
:100210007AFB0DF0C1FE0400002000210EF0BEFBB1
:10022000E0601FBD10B510BD0DF0B6FF1146FFF721
:10023000EDFF01F000F80DF0D4FF03B4FFF7F2FF7B
:1002400003BC03F0ABF800000B49D1F800C04A68CA
:100250005CF8043B1068184442F8040B8C4528BF36
:10026000A1F1DC0C8A4228BFA1F1DC02C1F800C078
:100270004A6020F000407047089B00201CB54FF6F4
:10028000FF7002F0F9FA1F20F7490880F7A010214B
:10029000CDE90010F6490A880988183988B2102378
:1002A000002102F026FE4FF47840EF4908801CBD83
:1002B000F8B505460E4614461F4604B9F8BD281980
:1002C000401E82B2334631462846009702F068FB52
:1002D00000BFF3E72DE9F05F0746884616469A46C9
:1002E00040F2C32070434FF47A71B0FBF1F000F19B
:1002F000010906FB06F000EB560B344671040A0CAC
:10030000B91B88B253464146FFF7D2FF012535E0BD
:1003100005FB05F004FB040058451AD94C4517D9D4
:100320006B1E5B041A0C08EB040399B27B1B5B1C6D
:1003300098B25346FFF7BCFF6B1E5B041A0CA8EB88
:10034000040399B27B1B5B1C98B25346FFF7B0FFC6
:10035000641E63041A0C08EB050399B23B1B98B2A8
:100360005346FFF7A5FF63041A0CA8EB050399B2E7
:100370003B1B98B25346FFF79BFF6D1C4D45C7D9F9
:10038000BDE8F09F02468A4202DD501A80B27047F3
:10039000881A80B2FBE72DE9FF4F85B08046894679
:1003A000129F002003900290B84507DB0798B842DF
:1003B00004DBB94502DB0898B84202DA09B0BDE8AF
:1003C000F08F0798A0EB08040898A0EB0905CDF87A
:1003D0000480CDF80090002C02DD4FF0010A06E009
:1003E00014B94FF0000A02E04FF0FF3A6442002DCA
:1003F00002DD4FF0010B06E015B94FF0000B02E0F3
:100400004FF0FF3B6D42AC4201DD264600E02E4638
:100410000020049023E0009A91B2019A90B23A46EB
:10042000139BFFF757FF039820440390029828443A
:1004300002900398B04205DD0398801B0390019859
:10044000504401900298B04205DD0298801B029052
:100450000098584400900498401C80B20490711C8D
:1004600004988842D7DD00BFA8E78AB000250024A1
:100470004FF6FF7002F000FA4FF478407A49088096
:10048000002010217BA2CDE900210290784802884B
:100490000B4632213C200AF0C4F9002010217BA237
:1004A000CDE900210290724802880B4646213C208B
:1004B0000AF0B7F9002010217AA2CDE900210290BC
:1004C0006B4802880B465A213C200AF0AAF91FE02B
:1004D000002010217EA2CDE900210290644802880C
:1004E0000B466E213C200AF09CF9C82002F029FF3F
:1004F000002010217CA2CDE9002102905C480288F6
:100500000B466E213C200AF08CF9C82002F019FF3E
:100510007B49086880470028DAD1102179A2CDE90B
:1005200000210290524802880B466E213C200AF0BE
:1005300078F940F2DC5002F004FF40F2DC5002F0A7
:1005400000FFFFF79BFE00250CE04FF6FF7005A9AA
:1005500021F8250001EB85014880002003A94855BA
:10056000681CC5B2052DF0DBFCE065484168002041
:1005700088476348007F00F0800000286ED0002488
:1005800066E05F48007F0121A140084000285DD05F
:100590005B48083030F8140035490988884252DA3F
:1005A0005748123030F814003149498888424ADAF5
:1005B0005348083030F814102D480088183881420C
:1005C00008DD4F48123030F81400102802DAFFF727
:1005D00055FE38E005A830F824004FF6FF71884238
:1005E0000DD14748083030F8140005A921F824003F
:1005F0004348123030F8140001EB8401488047482A
:1006000030F8140003213E4E1236CDE9001036F8C2
:1006100014300A3E36F8142005AE06EB84067188C5
:1006200005AE36F82400FFF7B6FE3548083030F83E
:10063000140005A921F824003148123030F81400C4
:1006400001EB84014880002003A90855601CC4B256
:10065000052C96DB00202A49087776E0052002F079
:1006600070FE00246FE000001C0000205253540074
:10067000EE030020B2E2CAD431A3BAB5E7C8DDB4B4
:10068000A5C3FEC6C1B2E2CAD4000000D7EEB4F3DF
:10069000CDACCAB1B4A5C3FEB5E3CAFDA3BA35B5A6
:1006A000E3000000C7E5C6C1A3BAB5E3BBF7D3D2E8
:1006B000C9CFBDC7B5C4B5C4A1AE525354A1AFBFD5
:1006C000C9D2D4C7E5B3FDD5FBB8F6C6C1C4BB00DB
:1006D000B5E7C8DDB4A5C3FEC6C1B3F5CABCBBAFA0
:1006E000CAA7B0DCA3A10000202020202020C7EB57
:1006F000BCECB2E9A3A1A3A1A3A12020202000006B
:1007000020000020B5E7C8DDB4A5C3FEC6C1B3F51F
:10071000CABCBBAFB3C9B9A6A3A10000DEF00008F4
:1007200003A8005D401C03A9085503A8005D0A2822
:1007300007DD4FF6FF7005A921F82400002003A96A
:100740000855601CC4B2052CEADB681CC5B2142D28
:1007500008D10025FE48006808B9012000E000200B
:10076000FB49086001E7F0B591B00546002629462F
:1007700008A808F056FB044640F2FF1007900798BF
:1007800004F0F8FD069004BB0698F0B11BE0694642
:1007900008A808F095FB044614B99DF8090000B9B3
:1007A00012E00698007808B1069801E00DF1090002
:1007B0000746384605F0FBFE044604F0F0005028DA
:1007C00001D1701C86B2E2E700BF304611B0F0BD27
:1007D0002DE9F04F97B04FF0000A4FF6FF7002F08E
:1007E0004BF800201021DBA2CDE900210290DE4869
:1007F00002880B4632213C200AF013F80020102119
:10080000DAA2CDE900210290D74802880B464621A2
:100810003C200AF006F800201021D8A2CDE90021E2
:100820000290D14802880B465A213C2009F0F9FF7A
:1008300000201021D5A2CDE900210290CA480288EB
:100840000B466E213C2009F0ECFF1CE0002010213B
:10085000D5A2CDE900210290C34802880B4682212F
:100860003C2009F0DEFFC82002F06BFD4FF6FF7060
:100870000090BD480288922382213C2002F090F82B
:10088000C82002F05EFDCDA10EA808F0CAFA00282B
:10089000DCD1CAA0FFF767FF06461CE0002010214C
:1008A000C9A2CDE900210290AF4802880B468221FF
:1008B0003C2009F0B6FFC82002F043FD4FF6FF7060
:1008C0000090A9480288922382213C2002F068F817
:1008D000C82002F036FD002EE0D040F2FF100D904F
:1008E0000D9804F047FD0C900D9804F043FD8046F0
:1008F000700004F03FFD07461CE000201021B6A266
:10090000CDE900210290984802880B4682213C20C4
:1009100009F087FFC82002F014FD4FF6FF70009029
:1009200091480288922382213C2002F039F8C820A5
:1009300002F007FD0C980028DFD0B8F1000FDCD0E2
:10094000002FDAD09DA10EA808F06BFA05462DBB4A
:10095000002421E0BDF83E00049006A90EA808F08E
:10096000AFFA054615B99DF8210000B915E00C98BD
:10097000007808B10C9801E00DF121000590059870
:1009800005F015FE054605F0F000502804D1049846
:1009900027F81400601C84B2DCE700BF4FF49660B7
:1009A00002F0CFFC002010218FA2CDE9002102909F
:1009B0006D4802880B4682213C2009F032FF4FF43B
:1009C000E16002F0BEFC0BF079FB00247BA10EA8D5
:1009D00008F027FA054685E037F814100EA806F04F
:1009E00078FD06A90EA808F06BFA054615B99DF822
:1009F000210000B979E00C98007808B10C9801E06A
:100A00000DF1210005907BA140460CF085FF40468A
:100A100005990CF0C4FF002001F02EFF012152487F
:100A20004088CDE900015048038800221146404625
:100A30000BF00EFC01201021CDE9008102904A4804
:100A400002880B460221084609F0EBFE4FF0000B2E
:100A500045E0002000F075FF8146BBF1FA0F04DD90
:100A6000BAF1000F01D14FF00109B9F1020F06D11F
:100A700014B1601E84B201E0701E84B230E0B9F19E
:100A8000010F05D1601C84B2B44200DB002427E0D2
:100A9000B9F1030F0ED1BAF1000F01D1012000E02E
:100AA00000208246BAF1000F01D1012000E00020B1
:100AB000534908600BF1010000F0FF0B14209BFB71
:100AC000F0F100FB11B038B92148006808B90120E5
:100AD00000E000201E4908600A2002F032FCB8E75E
:100AE00000BF0025002D3FF477AF00BF0C9804F045
:100AF00035FC404604F032FC384604F02FFC17B0B9
:100B0000BDE8F08F70B505460E464FF6FF7402E063
:100B1000FFF79AFB84B2AC42FADBB442F8DC204621
:100B200070BD2DE9F04104460D4616461F46DDF81E
:100B300018804FF42F710020FFF7E4FF20804FF45E
:100B4000BE710020FFF7DEFF288020885AE00000F9
:100B5000A0012142B2E2CAD432A3BACDBCC6ACCF06
:100B6000D4CABEB2E2CAD400EE0300204B455930CD
:100B70003ACFC2D2BBD5C5CDBCC6AC004B4559316E
:100B80003AC9CFD2BBD5C5CDBCC6AC00574B5F551B
:100B9000503AD4DDCDA32FBCCCD0F820D7D4B6AFFB
:100BA000B2A5B7C50000000050494354555245CE88
:100BB000C4BCFEBCD0B4EDCEF3210000303A2F50BF
:100BC0004943545552450000C3BBD3D0CDBCC6AC3D
:100BD000CEC4BCFE21000000C4DAB4E6B7D6C5E43A
:100BE000CAA7B0DC21000000BFAACABCCFD4CABECD
:100BF0002E2E2E00303A2F504943545552452F0087
:100C000088812242C0F5487081B25020FFF77AFFF8
:100C100030802888C0F5F07081B25020FFF772FF55
:100C2000388009210020FFF76DFFFA4931F81000E4
:100C3000A8F80000BDE8F08170B588B000244FF638
:100C4000FF7001F019FE4FF47840F349088000204E
:100C50001021F2A2CDE900210290F54802880B464E
:100C600032213C2009F0DDFD00201021F1A2CDE968
:100C700000210290EE4802880B4646213C2009F0F4
:100C8000D0FD00201021FAA2CDE900210290E84811
:100C900002880B465A213C2009F0C3FD40F2DC508B
:100CA00002F04FFB40F2DC5002F04BFB4FF4784077
:100CB00001F0E2FD3C2004F05DFB0546F6490888A2
:100CC0000CF00CFEF4482438008820F00100F249B2
:100CD000243908800020F0490880F04908803AE073
:100CE00003A804AB05AA06A9009007A8FFF719FFFF
:100CF000BDF81400BDF8101000FB0144E64824388C
:100D0000008840F00100E44924390880BDF80C0057
:100D10000090BDF81800BDF810100844401E83B2C2
:100D2000BDF81C00BDF814100844401E82B2BDF886
:100D30001810BDF81C0001F033FED7482438008895
:100D400020F00100D44924390880D4480088B0F547
:100D5000967F00DD00E0C3E700BF64206043CF4919
:100D60000988B0FBF1F63246CDA128460CF026FCEE
:100D700000201021CDE900510290AD4802880B46B9
:100D8000E6214FF4877009F04CFD284604F0E6FA9E
:100D90004FF4E16002F0D5FA4FF4E16002F0D1FACD
:100DA0004FF4AF6002F0CDFA08B070BD3EB54FF61B
:100DB000FF7001F061FD00201021C0A2CDE90021EB
:100DC00002909B4802880B4632213C2009F029FD05
:100DD00000201021BEA2CDE9002102909448028893
:100DE0000B4646213C2009F01CFD40F2DC5002F08D
:100DF000A8FA40F2DC5002F0A4FA4FF6FF7001F0BE
:100E00003BFD4FF47840844908808223B4221E21A0
:100E1000084601F08AFE1F20854C009064881E3C25
:100E2000A3B2834C24881E3CA2B2814C6488823CCD
:100E3000A1B27F4C2488B43CA0B201F0B1FD7C4843
:100E400040885A3881B23C225A2001F08CFE784901
:100E500009885A3988B24FF6E0733C225A21FFF7CD
:100E600039FA1F206C49088000201021A5A2CDE985
:100E7000002102906E4802880B4696218C2009F0D2
:100E8000D0FC002001F098FC4FF4966002F059FA73
:100E900040F2145002F055FA012001F08DFC4FF49D
:100EA000966002F04EFA40F2145002F04AFA022024
:100EB00001F082FC4FF4966002F043FA40F21450C5
:100EC00002F03FFA032001F077FC4FF4966002F045
:100ED00038FA40F2145002F034FA002001F06CFCB1
:100EE0003EBD3EB54FF6FF7001F0C6FC4FF47840B2
:100EF00049490880002010218AA2CDE900210290F2
:100F00004B4802880B4632213C2009F08AFC002025
:100F1000102189A2CDE900210290454802880B46A4
:100F200046213C2009F07DFC40F2DC5002F009FA39
:100F300040F2DC5002F005FA3C2004F01BFA0546B2
:100F4000002428E0204601F021FC204601F008FCA6
:100F5000304931F8140001F08FFC224685A1284663
:100F60000CF02CFB00202C4908801021CDE9005109
:100F700002902F4802880B46E6214FF4B47009F026
:100F800050FC4FF4966002F0DCF940F2145002F08D
:100F9000D8F9601CC4B2082CD4DB284604F0DEF972
:100FA000002001F0F3FB002001F0DAFB3EBD2DE94B
:100FB000FE4300264FF6FF7001F05EFC4FF47840D0
:100FC00015490880002010216EA2CDE90021029071
:100FD000174802880B4632213C2009F022FC0020F1
:100FE00010216D4ACDE900210290114802880B467C
:100FF00046213C2009F015FC40F2DC5002F0A1F93A
:1010000040F2DC5002F09DF93C2004F0B3F90546B3
:101010000024FFE0E8F000081C000020B2E2CAD47F
:10102000332D31A3BACBD9B6C8B2E2CAD40000007E
:10103000EE030020CDA8B9FDD4DA4C4344B8F7B88C
:10104000F6CEBBD6C3CBE6BBFAB5C4CCEEB3E4B2A6
:10105000BBCDACB3DFB4E7B5C4B5A5C9ABBED8D082
:10106000CE2CC0B4B2E2CAD4CBD9B6C800000000BE
:10107000B2E2CAD4CAB1B3A4D4BCCEAA35C3EB2C55
:10108000B2E2CAD4BDE1B9FBBDABCFD4CABED4DA9B
:101090004C4344C9CF00000024040040000000205D
:1010A0004C4344CBD9B6C8B2E2CAD4BDE1B9FB3A8D
:1010B000256420CFF1CBD82FC3EB0000B2E2CAD415
:1010C000332D32A3BABEB5CFF1B2E2CAD4000000CC
:1010D000B2E2CAD4B2BDD6E83AC4ACC8CFCFD4CA03
:1010E000BE2FC9CFCFC2B5F7D7AA2FD7F3D3D2B56A
:1010F000F7D7AA2FC9CFCFC2D7F3D3D2B6BCB5F793
:10110000D7AA000041544B2D3727205446544C4356
:1011100044C4A3BFE9BEB5CFF1B9A6C4DCB2E2CAEC
:10112000D4000000B2E2CAD4332D33A3BAB6E0BB78
:10113000BAB4E6B2E2CAD40041544B2D372720544A
:1011400046544C4344C4A3BFE9D3B5D3D0B6E0B4AE
:10115000EF38D2B34C4344BBBAB4E62CB1BEB2E2D2
:10116000CAD4BDABB2E2CAD4C8ABB2BF38D2B3BBEB
:10117000BAB4E600CED2CAC7B5DA2564D2B3BBBAD8
:10118000B4E60000B2E2CAD4332D34A3BAB1B3B985
:10119000E2B2E2CAD400000024AE0308072101EB4A
:1011A000C401C8B201F0B3FA601C0DF0C3FD804663
:1011B0004FF082410DF01EFE07464FF085410DF0C5
:1011C000A3FC0646C24930460DF014FE81460DF0E0
:1011D00001FC07463A460B46BEA128460CF0EEF944
:1011E0001F20C249088000201021CDE90051029043
:1011F000BF4802880B46E6214FF4A57009F011FBA9
:101200004FF4966002F09DF840F2145002F099F805
:10121000601CC4B2082CC1DB284604F09FF8BDE86E
:10122000FE8307E0FFF708FDFFF7C0FDFFF759FE5B
:10123000FFF7BDFEF6E70EB5002502F045F84FF4C6
:10124000A06002F0EFFE4FF4165002F0B6F801F085
:1012500033FB00F025FB00F04BFB41F61F41632000
:1012600001F07AFEA34841684820884703F0F3FF65
:1012700005F05EF9A04901220868A0A107F05DF918
:101280009D49012248689EA107F057F94FF4784024
:10129000964908804DE04FF47840944908804FF615
:1012A000FF7001F0E9FA97A01021CDE900109048F5
:1012B00002880B4632213C2001F01BFE95A0102134
:1012C000CDE900108A4802880B4646213C2001F0F7
:1012D00010FE23E094A01021CDE90010844802887C
:1012E0000B465A213C2001F004FEC82002F029F8E8
:1012F00093A01021CDE900107D4802880B465A21A9
:101300003C2001F0F6FDC82002F01BF8924800686E
:1013100008B9012000E000208F49086010225A21FE
:101320003C2009F0BCF80028D4D14FF6FF7001F042
:10133000A3FA09F059F90028ADD1102187A2CDE90F
:10134000002102906A4802880B4632213C2009F0B5
:1013500068FA002010218CA2CDE900210290644897
:1013600002880B4646213C2009F05BFA1F205F49AA
:1013700008800020102189A2CDE9002102905C485C
:1013800002880B465A213C2009F04BFA002010211C
:101390008BA2CDE900210290554802880B466E21B0
:1013A0003C2009F03EFA002010218EA2CDE9002158
:1013B00002904F4802880B4682213C2009F031FA06
:1013C0004FF47840494908800020102190A2CDE9CF
:1013D00000210290464802880B46AA213C2009F0D1
:1013E00020FA0020102194A2CDE90021029040486B
:1013F00002880B46BE213C2009F013FA0020102180
:1014000094A2CDE900210290394802880B46D221EE
:101410003C2009F006FA0020102196A2CDE9002117
:101420000290334802880B46E6213C2009F0F9F986
:101430000020102196A2CDE9002102902C480288BC
:101440000B46FA213C2009F0ECF93FE0002000F0C7
:1014500078FA04462046012C04D0022804D0032840
:1014600007D104E0FFF701F8FFF7B2F901E0FFF759
:10147000D8FE00BF681CC5B2142D24D10025364803
:10148000006808B9012000E0002033490860844862
:10149000D0F8A00168B1002010213BA2CDE90021C5
:1014A0000290134802880B4646213C2009F0B9F906
:1014B0000CE04FF6FF705623BC22462100903C20E2
:1014C00001F06EFA02E00A2001F03BFFBEE70000E7
:1014D0000000C842B5B1C7B0B1B3B9E2C1C1B6C826
:1014E0003A25332E31662525000000001C0000201F
:1014F000EE0300206401002090030020303A000039
:10150000313A0000414C49454E54454B2053544D0F
:1015100033320000466F6E74205570646174696EDA
:10152000672E2E2E0000000020466F6E742055702E
:1015300064617465206572726F7221200000000082
:101540002020506C6561736520436865636B2E2EA7
:101550002E2E202000000000A0012142414C4945D0
:101560004E54454B2041544B2D3727205446544C64
:101570004344B5E7C8DDB4A5C3FEC6C1B2E2CAD4D0
:10158000CAB5D1E900000000C7EBD1A1D4F1B2E2A5
:10159000CAD4C4A3CABDA3BA000000004B45593049
:1015A000A3BAB5E7C8DDB4A5C3FEC6C1B2E2CAD4CA
:1015B000A3A8D6A7B3D635B5E3B4A5BFD8A3A900D1
:1015C0004B455931A3BACDBCC6ACCFD4CABEB2E2EA
:1015D000CAD4A3A8D0E8D2AA5344BFA8D6A7B3D6EA
:1015E000A3A90000574B5F5550A3BAD2BABEA7D7E4
:1015F000D4B2E2CAD4A3A8CBD9B6C82FBEB5CFF116
:101600002FB6E0BBBAB4E62FB1B3B9E2A3A900008C
:10161000B9E3D6DDCAD0D0C7D2EDB5E7D7D3BFC6C0
:10162000BCBCD3D0CFDEB9ABCBBE28414C49454E74
:1016300054454B2900000000B9D9B7BDCDF8D5BE3F
:10164000A3BA7777772E616C69656E74656B2E63CC
:101650006F6D0000BFAAD4B4B5E7D7D3CDF8C2DB15
:10166000CCB3A3BA7777772E6F70656E6564762EEC
:10167000636F6D00B5E7BBB028B4ABD5E629A3BA5C
:101680003032302D333832373137393000000000F6
:1016900032303134C4EA34D4C231C8D5000000003D
:1016A00000002142704700BFFEE700BFFEE700BF19
:1016B000FEE700BFFEE770477047704770470000C5
:1016C0000CB50020019000906C48006840F4803018
:1016D0006A49086000BF6948006800F40030009063
:1016E0000198401C0190009818B90198B0F5A06FBE
:1016F000F1D16248006800F4003010B10120009080
:1017000001E0002000900098012843D15C48006867
:1017100040F010005A4908600846006820F00300B5
:1017200008600846006840F00200086053484068BE
:10173000524948600846406848600846406840F49E
:10174000806048600846406820F47C104860084685
:10175000406840F4E81048600846006840F0807037
:10176000086000BF4548006800F000700028F9D00C
:101770004248406820F003004049486008464068FD
:1017800040F00200486000BF3C48406800F00C0098
:101790000828F9D10CBD10B5FFF792FF10BD10B5A8
:1017A0003648006840F00100344908600846406847
:1017B00034490840314948600846006832490840C9
:1017C0002E4908600846006820F48020086008461A
:1017D000406820F4FE0048604FF41F008860FFF767
:1017E000DAFF4FF000602949086010BD10B50021F4
:1017F00000200022214B5B6803F00C0121B1042979
:1018000006D0082928D107E0214B224C236027E08D
:101810001F4B204C236023E0184B5B6803F47010CF
:10182000164B5B6803F48032022303EB904022B92D
:10183000194B4343174C23600DE0104B5B6803F4D6
:10184000003323B1144B4343124C236003E0104B8D
:101850004343104C236003E00D4B0E4C236000BF4C
:1018600000BF064B5B68C3F303130C4CE15C094BF0
:101870001B68CB40074C236010BD000000100240E5
:10188000002002400000FFF8FFFFF6FE08ED00E038
:1018900000127A000400002000093D00080000202A
:1018A00008B50121242002F055F94FF48070ADF8FD
:1018B000000010208DF8030003208DF80200694617
:1018C000094801F08BFE4FF48071074801F033FFA7
:1018D0000420ADF800006946044801F07FFE0421B1
:1018E000024801F028FF08BD000801400014014033
:1018F00008B50121142002F02DF90121374801F02B
:101900003EFF4FF40040ADF8000048208DF8030082
:101910006946334801F062FE2020ADF800004820FF
:101920008DF8030069462F4801F058FE0120ADF8FC
:10193000000028208DF803006946294801F04EFE7A
:1019400008BD10B5044614B1012027490870264887
:10195000007868B32021234801F0D3FE58B14FF43A
:1019600000411F4801F0CDFE28B101211C4801F0C3
:10197000C8FE01281CD10A2001F0E3FC00201A490E
:1019800008702021174801F0BCFE08B9012010BDE5
:101990004FF40041124801F0B4FE08B90220F6E706
:1019A00001210F4801F0ADFE012815D10320EEE71B
:1019B00020210C4801F0A5FE01280DD1C1030848E3
:1019C00001F09FFE012807D10121054801F099FE91
:1019D00010B90120044908700020D8E70002300047
:1019E00000080140001001401800002070B50546B5
:1019F000002405E0601CC4B2C82C01DD002070BDCD
:101A00000221314802F0CBFC0028F3D029462E48B1
:101A100002F072FC002405E0601CC4B2C82C01DD99
:101A20000020ECE70121284802F0B9FC0028F3D09F
:101A3000254802F063FCC0B2E1E708B5012141F29C
:101A4000040002F087F8E020ADF8000018208DF8BF
:101A5000030003208DF8020069461C4801F0BEFD1A
:101A6000E0211A4801F067FE0020194908804FF470
:101A700082704880002088800220C8800120088170
:101A800040024881382088810020C88107200882D0
:101A90000D4802F05BFB01210B4802F0FCFBFF202C
:101AA000FFF7A4FF08BD084909884FF6C772114027
:101AB000054A1180114609880143118011460988A1
:101AC00041F04001118070470030014000080140A2
:101AD000DC03002010B504462046FFF787FF10BD49
:101AE00010B53820FFF7DFFF10BD10B50020FFF75D
:101AF000DAFF10BD08B50121042002F02BF81C20EC
:101B0000ADF8000010208DF8030003208DF80200CE
:101B10006946F64801F062FD1C21F44801F00BFE15
:101B2000FFF78BFF0120F249086008BD10B50120C6
:101B3000EF490860FF20FFF7CDFF10BD10B500246E
:101B400000BFFF20FFF7C6FFFF2801D1002010BD16
:101B5000641C6FF07F408442F3D30120F7E710B597
:101B60000020E3490860FFF7E9FF08B9002010BD35
:101B7000FFF7DCFF0120FAE770B505464FF6FF746A
:101B800001E0601E84B2FF20FFF7A4FFA84201D04D
:101B9000002CF6D10CB9FF2070BD0020FCE770B519
:101BA00004460D46FE20FFF7E7FF08B1012070BD97
:101BB00004E0FF20FFF71AFF2070641C2800A5F145
:101BC00001018DB2F5D1FF20FFF784FFFF20FFF761
:101BD00081FF0020EBE770B506460D46FFF7AEFF2C
:101BE00008B1012070BD2846FFF774FFFD2D19D004
:101BF000002404E0305DFFF7F9FE601C84B2B4F508
:101C0000007FF7DBFF20FFF765FFFF20FFF762FF94
:101C1000FF20FFF75FFF044604F01F00052801D0F6
:101C20000220DFE70020DDE72DE9F04105460C4604
:101C300017464FF00008FFF779FFFFF790FF10B14C
:101C4000FF20BDE8F08145F04000FFF743FF200E84
:101C5000FFF740FFC4F30740FFF73CFFC4F3072042
:101C6000FFF738FFE0B2FFF735FF3846FFF732FFE6
:101C70000C2D02D1FF20FFF72DFF4FF01F0800BFF2
:101C8000FF20FFF727FF064606F0800030B15FEA2D
:101C90000800A8F1010101F0FF08F1D13046D0E7BA
:101CA00070B50546012200210A20FFF7BDFF04465A
:101CB00024B910212846FFF772FF0446FFF736FFCC
:101CC0000CB1012070BD0020FCE770B50546012273
:101CD00000210920FFF7A8FF044624B91021284657
:101CE000FFF75DFF0446FFF721FF0CB1012070BD37
:101CF0000020FCE77FB56846FFF7E7FF10B1002042
:101D000004B070BD9DF8000000F0C000402809D16B
:101D10009DF809009DF8081000EB0120401C84B2DA
:101D2000A50220E09DF8050000F00F009DF80A10C4
:101D300000EBD1109DF8091001F0030100EB410008
:101D4000861C9DF8080080119DF8071000EB8100AB
:101D50009DF8061001F0030100EB8120441CA6F160
:101D6000090004FA00F52846CAE7F8B5FFF7C2FEF5
:101D7000FFF7B6FE002504E0FF20FFF7ABFE681C6E
:101D800085B20A2DF8DB142600BF952200210846F3
:101D9000FFF74AFF0446012C04D03000A6F10101F0
:101DA0008EB2F2D1002053490870012C4AD187220B
:101DB0004FF4D5710820FFF737FF012847D10025E0
:101DC00006E0FF20FFF786FE0DF80500681C85B2CF
:101DD000042DF6DB9DF80200012879D19DF803005F
:101DE000AA2875D14FF6FE7600BF012200213720C8
:101DF000FFF71AFF012291072920FFF715FF04467C
:101E000024B13000A6F101018EB2EED1002E5FD0D8
:101E1000012200213A20FFF707FF002858D10025B2
:101E200006E0FF20FFF756FE0DF80500681C85B29E
:101E3000042DF6DB9DF8000000F0400018B10620EC
:101E40002C49087044E004202A49087040E001222F
:101E500000213720FFF7E8FE012200212920FFF7AB
:101E6000E3FE0446012C17DC0220224908704FF6DD
:101E7000FE7600BF012200213720FFF7D5FE0122A8
:101E800000212920FFF7D0FE0446BCB13000A6F1A6
:101E900001018EB2EED111E00120164908704FF613
:101EA000FE7600BF012200211046FFF7BDFE04466A
:101EB00024B13000A6F101018EB2F3D12EB101227E
:101EC00051021020FFF7B0FE10B100200949087040
:101ED000FFF72CFEFFF709FE0648007808B1002046
:101EE000F8BD0CB12046FBE7AA20F9E70008014045
:101EF0008C012142190000202DE9F04106460F46D1
:101F000015463C480078062800D07F02012D0CD1F0
:101F1000012239461120FFF787FE0446FCB9690209
:101F20003046FFF73CFE044619E0012239461220F4
:101F3000FFF77AFE044600BF4FF400713046FFF70A
:101F40002EFE044606F50076681EC0B2050001D0DC
:101F5000002CF1D0012200210C20FFF765FEFFF7D5
:101F6000E5FD2046BDE8F0812DE9F04106460F462B
:101F7000154620480078062800D07F02012D0CD19C
:101F8000012239461820FFF74FFE04466CBBFE21A4
:101F90003046FFF720FE044627E016480078012867
:101FA00009D0012200213720FFF73EFE01222946F9
:101FB0001720FFF739FE012239461920FFF734FEBA
:101FC000044694B900BFFC213046FFF704FE0446E6
:101FD00006F50076681EC0B2050001D0002CF2D0D4
:101FE000FD210020FFF7F7FD0446FFF79FFD204687
:101FF000BDE8F0811900002010B500240020D04970
:1020000008609020FFF7F2FC0020FFF7EFFC0020B3
:10201000FFF7ECFC0020FFF7E9FCFF20FFF7E6FCF0
:1020200044EA0024FF20FFF7E1FC04430120C549F6
:10203000C1F88801204610BD08B50121042001F037
:1020400089FD1C20ADF8000010208DF8030003204E
:102050008DF802006946BC4801F0C0FA1C21BA485C
:1020600001F069FBFFF7E9FC0820FFF71CFDFFF713
:10207000C3FFB649088008BD10B500240020B04950
:1020800008600520FFF7B2FCFF20FFF7AFFC044615
:102090000120AC49C1F88801204610BD10B50446A6
:1020A0000020A74908600120FFF7A0FC2046FFF7A9
:1020B0009DFC0120A349C1F8880110BD10B5002086
:1020C0009F4908600620FFF791FC01209D49C1F857
:1020D000880110BD10B50020994908600420FFF761
:1020E00085FC01209749C1F8880110BD2DE9F04118
:1020F00006460C4617460020914908600320FFF76A
:1021000075FCC4F30740FFF771FCC4F30720FFF729
:102110006DFCE0B2FFF76AFC002505E0FF20FFF749
:1021200065FC7055681C85B2BD42F7DB012084490F
:102130000860BDE8F08110B500BFFFF79DFF00F01B
:1021400001000028F9D110BD2DE9F04106460C46EA
:102150001746FFF7B3FF0020794908600220FFF718
:1021600045FCC4F30740FFF741FCC4F30720FFF729
:102170003DFCE0B2FFF73AFC002504E0705DFFF79C
:1021800035FC681C85B2BD42F8DB01206C49086053
:10219000FFF7D1FFBDE8F0812DE9F04107460E467B
:1021A0001446F0B2C0F58075AC4200DC254612E062
:1021B0002A4631463846FFF7C7FFAC4200D10BE054
:1021C0002F442E44601B84B2B4F5807F02DD4FF4AF
:1021D000807500E02546EBE700BFBDE8F08110B553
:1021E00004462403FFF76AFFFFF7A5FF00205449C8
:1021F00008602020FFF7FAFBC4F30740FFF7F6FB67
:10220000C4F30720FFF7F2FBE0B2FFF7EFFB01207A
:102210004C49C1F88801FFF78EFF10BD2DE9F05F32
:102220008346884616464FF4805003F0A3F8824652
:10223000BAF1000F01D1BDE8F09F4FEA1837C8F39B
:102240000B09C9F58054A64200DC344641E039034D
:102250004FF480525046FFF749FF002508E009EB94
:1022600005001AF80000FF2800D003E0681C85B2C2
:10227000A542F4DB00BFA54215DA3846FFF7AFFFF1
:10228000002507E01BF8050005EB09010AF801002D
:10229000681C85B2A542F5DB39034FF480525046E5
:1022A000FFF77AFF04E0224641465846FFF774FFE5
:1022B000A64200D10EE07F1C4FF00009A344A044C9
:1022C000301B86B2B6F5805F02DD4FF4805400E02B
:1022D0003446BCE700BF504603F040F800BFAAE711
:1022E00010B5FFF7EBFEFFF726FF0020144908604A
:1022F000C720FFF77BFB01201249C1F88801FFF7D7
:102300001AFF10BD10B500200D490860B920FFF775
:102310006DFB01200B49C1F88801032000F0EDFF9F
:1023200010BD10B5002006490860AB20FFF75EFB2A
:1023300001200449C1F88801032000F0DEFF10BD30
:102340008801214200002142000801401A000020BB
:1023500008B50121102001F0FDFB0920ADF80000B7
:1023600010208DF8030003208DF80200694687488D
:1023700001F034F90921854801F0DDF908BD10B5F7
:102380008248006820F47040804908600846006870
:1023900040F44050086001207D4908607D49C1F843
:1023A000800100F0AAFF002079490860012000F0B8
:1023B000A4FF00207749C1F8800110BD10B5734813
:1023C000006820F47040714908600846006840F4D5
:1023D0004050086000206E490C3908606D49C1F812
:1023E0008C01012000F089FF012069490C39086047
:1023F0006849C1F88C0100F080FF10BD10B50024C1
:102400006248006820F4704060490860084600682F
:1024100040F40040086001205D49086000F06DFF55
:1024200001205C49C1F8800100F067FF07E0601CF3
:10243000C4B2FA2C03DDFFF7C1FF012010BD5448E0
:10244000803800680028F2D151490C39086000BF7B
:10245000F4E710B500204E490C3908604B4800687D
:1024600020F47040494908600846006840F4405034
:10247000086000204749C1F88C01012000F03DFFB1
:10248000012043490C39086000F037FF0020414922
:10249000C1F8800110BD10B500203D490C3908601D
:1024A0003A48006820F470403849086008460068DF
:1024B00040F44050086001203649C1F88C0100F01A
:1024C0001CFF012032490C39086000F016FF002083
:1024D0003049C1F8800110BD70B504462B48006832
:1024E00020F47040294908600846006840F44050D4
:1024F0000860002026490C390860002513E0E00937
:10250000234908606006040E01202249C1F88001B9
:1025100000F0F3FE00201E490C390860012000F095
:10252000ECFE681CC5B2082DE9DB70BD70B5054630
:1025300000241648006820F47040144908600846DA
:10254000006840F400400860002614E000201049B4
:102550000C390860012000F0D0FE01200D49C1F8BF
:1025600080016006040E0A488038006808B1601CCB
:10257000C4B2701CC6B2082EE8DB15B9FFF78BFF9A
:1025800001E0FFF766FF204670BD0000001001402B
:102590008C012242000022424FF48071F94A5161BD
:1025A00049005161F8490860802151611161890039
:1025B000116170474FF08831F34A0C3A1160121DD7
:1025C00011604FF6FF71F04A11609115ED4A1161EB
:1025D00049005161402151611161EB49091F0968AE
:1025E00088B2511511614FF03331E74A0C3A11604E
:1025F000121D11604FF6FF71E34A1160704710B56C
:1026000004460B462046FFF7C7FF4FF48070DD49B4
:10261000086140004861DC4803608020486108612F
:102620008000086110BD00B503461846FFF7B4FFEF
:10263000FFF7C0FF00BD00B5D449887AFFF7ACFFB3
:1026400000BD4FF48071CF4A116149005161CE49FC
:10265000086080215161116189001161704730B5B6
:1026600004460D46C949887B2946FFF7C8FFC7497C
:10267000087B2146FFF7C3FF30BDF0B506460F4685
:10268000002439463046FFF7EAFF4FF08830BE4954
:102690000C390860091D08604FF6FF70BA490860E0
:1026A00014E04FF48070B749486140004861402011
:1026B00048610861B448001F006885B24815086188
:1026C00005F0010000B105E0601C84B241F6FF7026
:1026D0008442E6DB00BF4FF48070AA4908614000E5
:1026E0004861402048610861A748001F006884B223
:1026F000481508614FF03330A3490C390860091DB3
:1027000008604FF6FF70A04908602046F0BD10B584
:1027100004469E48008920F03F009C4908810846F5
:10272000008904F03F01084398490881084601895F
:102730000520FFF764FF10BD10B5044621460320B5
:10274000FFF75DFF10BD00B5904801890520FFF738
:1027500056FF00BD00B500210520FFF750FF00BD6A
:1027600010B504468948008920F4606087490881D3
:102770000846008904F0070140EA412083490881A6
:10278000084601890520FFF73AFF10BD10B5044641
:102790007E48008920F4E0407C4908810846008991
:1027A00004F0070140EA01307849088108460189B0
:1027B0000520FFF724FF10BD10B5044634B1012CED
:1027C00009D0022C0CD0032C14D10EE001210720DB
:1027D000FFF715FF13E003210720FFF710FF0EE0BE
:1027E00000210720FFF70BFF09E002210720FFF778
:1027F00006FF04E001210720FFF701FF00BF00BF33
:1028000010BD30B504460D4629462046FFF727FF88
:10281000FFF711FF4FF480705A490861400048618A
:102820005B48008858490860802056494861086123
:102830008000086130BD70B504460E461546534908
:10284000887B3146FFF7DBFE5049087B2146FFF7C6
:10285000D6FE4E49887AFFF79FFE4FF480704949B3
:10286000086140004861484805608020486108616F
:102870008000086170BD704770B50446002643486B
:1028800005884088454300210846FFF7E8FEFFF72A
:10289000D2FE00BF0DE04FF480703A49086140005D
:1028A00048613948046080204861086180000861FF
:1028B000761CAE42EFD370BD38B50024012119203B
:1028C00001F048F90121334800F059FF4FF4F86056
:1028D000ADF8000010208DF8030003208DF80200F1
:1028E0006946284800F07AFE4FF4F861254800F068
:1028F00022FF4FF6FF70ADF80000694622480C3801
:1029000000F06CFE4FF6FF711F480C3800F013FF0B
:10291000002021490860642000F013FD01201F49B8
:10292000C1F8B40107E0FFF745FE00F0010000B177
:1029300005E0601C84B241F6FF708442F3DB00BF07
:102940000120124988810020C881022048814FF46B
:10295000487008804FF4F07048800020FFF72CFF8B
:102960000020FFF7FDFE0020FFF710FF40F21F30B0
:10297000FFF7E2FE3F20FFF7CAFE4FF6FF70FFF7BA
:102980007BFF38BD001001400C0C0140EE0300201D
:102990001C00002000023000B4012242000022424C
:1029A0002DE9F04F05460E4617469846DDF824A05F
:1029B0004FF0000B781B401C1FFA80FB34461EE0D2
:1029C00021462846FFF74BFEFFF735FE4FF0000982
:1029D00011E04FF48070FE49086140004861FD48F5
:1029E000C0F800A08020486108618000086109F1FA
:1029F00001001FFA80F9D945EBDB601C84B2444525
:102A0000DEDDBDE8F08F2DE9F84F07460D46904614
:102A10009946DDF828B0A8EB0700401C1FFA80FAA1
:102A2000A9EB0500401C80B20090002420E028198A
:102A300081B23846FFF713FEFFF7FDFD002613E0D5
:102A40004FF48070E24908614000486104FB0A606D
:102A50003BF81000DF4908608020DD4948610861CB
:102A600080000861701C86B25645E9DB601C84B2A8
:102A700000988442DBDBBDE8F88F2DE9FF4F84B07E
:102A800081468A460020039002900698A0EB090533
:102A90000798A0EB0A06CDF80490CDF800A0002D11
:102AA00001DD012705E00DB9002702E04FF0FF37F7
:102AB0006D42002E02DD4FF0010806E016B94FF01E
:102AC000000802E04FF0FF387642B54201DD2C46A7
:102AD00000E034464FF0000B21E0009A91B2019AD9
:102AE00090B2FFF78EFE039828440390029830447A
:102AF00002900398A04205DD0398001B0390019803
:102B0000384401900298A04205DD0298001B029013
:102B10000098404400900BF101001FFA80FB601CFC
:102B20008345DADD08B0BDE8F08FF0B504460D4608
:102B300016461F462B46324629462046FFF79DFF84
:102B40003B46224629462046FFF797FF3B46324642
:102B500039462046FFF791FF3B463246294630462C
:102B6000FFF78BFFF0BD2DE9F04306460F46904678
:102B7000002445460320A0EB480948E03A1B91B2E7
:102B8000721B90B2FFF73DFE3A1B91B2721990B2E0
:102B9000FFF737FE7A1991B2321B90B2FFF731FE80
:102BA0003A1B91B2721B90B2FFF72BFE7A1B91B2C7
:102BB000321B90B2FFF725FE3A1991B2721990B20A
:102BC000FFF71FFE7A1B91B2321990B2FFF719FE80
:102BD0007A1991B2321990B2FFF713FE3A1991B2F5
:102BE000721B90B2FFF70DFE641CB9F1000F03DAFF
:102BF000A000801D814404E0601B80000A308144F5
:102C00006D1E7A1991B2321990B2FFF7FAFDAC42FB
:102C1000B4DDBDE8F0832DE9F84F05460F46904638
:102C20001E4600976C48B0F80090A8F1200000F014
:102C3000FF080A9800284ED1002449E00C2E07D145
:102C400008EB4800654901EB800010F804A004E09F
:102C5000634800EB081010F804A04FF0000B31E0BF
:102C60000AF0800018B15C48A0F8009003E05D48CD
:102C700000885949088039462846FFF7C2FD4FEAC7
:102C80004A604FEA106A781C87B257480088A84209
:102C900004DC5148A0F80090BDE8F88F0098381A7D
:102CA000B0420BD1009F681C85B24F480088A842F3
:102CB00003DC4948A0F80090EEE706E00BF10100C4
:102CC00000F0FF0BBBF1080FCADB00BF601CC4B2F1
:102CD000B442B3DB44E0002440E00C2E07D108EB03
:102CE00048003E4901EB800010F804A004E03C4895
:102CF00000EB081010F804A04FF0000B28E00AF0D9
:102D0000800018B139462846FFF77BFD4FEA4A603C
:102D10004FEA106A781C87B233484088A84203DC27
:102D20002D48A0F80090B7E70098381AB0420BD1B0
:102D3000009F681C85B22C480088A84203DC264806
:102D4000A0F80090A8E706E00BF1010000F0FF0BEF
:102D5000BBF1080FD3DB00BF601CC4B2B442BCDBC4
:102D60001D48A0F8009000BF96E710B5024601206C
:102D700000E050430B00A1F10104E1B2F9D110BD14
:102D80002DE9FF4F81B0074691461E460E9D4FF03C
:102D9000000A002449E0301B401EC1B20A20FFF7A0
:102DA000E4FFB9FBF0F00A21B0FBF1F201FB1208DD
:102DB000BAF1000F26D1701EA04223DDB8F1000F3A
:102DC0001ED10020AB4605EBDB7149100EE0000080
:102DD000001001400C0C01401C000020FCF0000819
:102DE00070F500081E000020EE03002001FB0471B6
:102DF000009088B22B4620220299FFF70CFF12E0C8
:102E00004FF0010A0020AB4605EBDB71491001FBD6
:102E10000471009088B208F13001CAB22B460299C1
:102E2000FFF7F9FE00BF601CC4B2B442B3DB05B0CB
:102E3000BDE8F08F2DE9FF4F82B0064692461F464F
:102E4000DDE90F480020019000254DE0781B401E71
:102E5000C1B20A20FFF789FFBAFBF0F00A21B0FBEC
:102E6000F1F201FB1209019850BB781EA84227DD40
:102E7000B9F1000F22D108F0800078B108F001000C
:102E8000A34604EBDB71491001FB0561009088B299
:102E9000234630220399FFF7BEFE0EE008F0010042
:102EA000A34604EBDB71491001FB0561009088B279
:102EB000234620220399FFF7AEFE13E00120019084
:102EC00008F00100A34604EBDB71491001FB05612A
:102ED000009088B209F13001CAB223460399FFF786
:102EE0009AFE00BF681CC5B2BD42AFDB06B0BDE8AC
:102EF000F08F2DE9F84704460D4690469946DDE9E6
:102F0000096704F0FF0A08EB04001FFA80F809EBD8
:102F100005001FFA80F916E0444502DB5446A81963
:102F200085B24D4500DB14E0002000903A7833462E
:102F300029462046FFF76FFE304606EBD07104EBC2
:102F400061018CB27F1C38787E2802DC387820281A
:102F5000E2DA00BFBDE8F8877FB505460C460121DF
:102F6000022000F004FEADF80850ADF80440002047
:102F7000ADF80A00ADF8060001A9194801F01AFBE6
:102F800001221146164801F08CFE1D208DF800002C
:102F900000208DF8010003208DF8020001208DF83B
:102FA0000300684601F043F801210D4801F05EFE80
:102FB0007FBD10B501210A4802F021F958B1012165
:102FC000074802F02DF90748006808B9012000E021
:102FD0000020044908600021014801F047FE10BDAF
:102FE00000040040888122422DE9F04105460E464A
:102FF00017464FF00008FFF7C2F97020FFF76CFA90
:10300000FFF7FCF9E8B2FFF767FAFFF7F7F90024DA
:103010000BE0305DFFF760FAFFF7F0F98046B8F19A
:10302000000F00D003E0601CC4B2BC42F1DB00BF63
:10303000FFF7C4F94046BDE8F0812DE9F0410646AE
:103040000F461546FFF79BF97020FFF745FAFFF78B
:10305000D5F9F0B2FFF740FAFFF7D0F9FFF78FF993
:103060007120FFF739FAFFF7C9F900240BE0691E58
:10307000A14201D0012100E000210846FFF756FAE5
:103080003855601CC4B2AC42F1DBFFF797F9BDE8DC
:10309000F0811CB50121802000F05CFD4FF4005050
:1030A000ADF8000010208DF8030003208DF8020019
:1030B00069467C4800F092FA4FF40051794800F0DC
:1030C0003AFB0220ADF8000048208DF80300694665
:1030D000744800F083FA4FF48061724800F02BFBD3
:1030E000FFF736F9002070490860142000F029F934
:1030F00001206E49C1F8B401322000F022F900200D
:103100008DF80400012201A9FFF76EFF012201A939
:10311000A420FFF769FF16208DF80400012201A901
:103120008020FFF761FF0C208DF80400012201A927
:103130008820FFF759FF022201A9A120FFF77DFF98
:103140009DF8040030280ED19DF8050003280AD10F
:103150009DF805009DF8042000EB022154A00AF020
:1031600021FA00201CBD0120FCE771B581B00024CC
:10317000002652480078401C5049087008460078E4
:103180000A2190FBF1F201FB120018B14B480078C4
:103190000A2862DA012201A90220FFF74EFF9DF8FA
:1031A000040000F00F00002857D09DF8040000F044
:1031B0000F00062851DA9DF8040000F00F01FF20EF
:1031C0008840C5B2E843C0B240F0C0003C4908772F
:1031D000002434E03A48007F0121A140084060B358
:1031E000384931F8140004226946FFF726FF9DF89C
:1031F00001009DF8001001F00F0100EB01213048A3
:10320000123020F814109DF803009DF8021001F010
:103210000F0100EB01202A49083121F814009DF824
:10322000000000F0F000802807D000212448123070
:1032300020F814100A3820F81410601CC4B2052CB1
:10324000C8DB01261E48008920B91D48408A08B9FC
:10325000002001900020194908709DF8040000F03A
:103260001F00A8B91648007F00F0800030B1144854
:10327000007F20F080001249087709E04FF6FF70C8
:103280000F49088148820846007F00F0E000087777
:103290000A480078F02802DD0A2008490870304604
:1032A0007CBD000000100140B40122420000224217
:1032B0004354502049443A25780D0A00400000202C
:1032C0002000002060FB000810B56FF0040000F043
:1032D000F8FE2E4800682E49B0FBF1F02D49087029
:1032E0000846007800EB4001C1EBC0104FF6FF71BB
:1032F00001EAC0002849088010BD0146254A12781D
:103300004A434FF0E0235A6100229A611A4612693B
:1033100042F001021A6100BF4FF0E022106900F094
:1033200001021AB100F48032002AF5D04FF0E022F9
:10333000126922F001024FF0E0231A6100229A6123
:1033400070470146144A12884A434FF0E0235A61FD
:1033500000229A611A46126942F001021A6100BF06
:103360004FF0E022106900F001021AB100F480323F
:10337000002AF5D04FF0E022126922F001024FF04E
:10338000E0231A6100229A617047000004000020C7
:1033900000127A004200002044000020014600BFD5
:1033A000704700BF494A128802F04002002AF9D053
:1033B000C2B2464B1B1D1A80704710B586B004463A
:1033C000012144F2040000F0C5FB4FF40070ADF899
:1033D000140003208DF8160018208DF8170005A999
:1033E0003B4800F0FBF84FF48060ADF81400042077
:1033F0008DF8170005A9364800F0F0F825208DF863
:10340000000003208DF801008DF8020001208DF8E6
:103410000300684600F00BFE01940020ADF80800A0
:10342000ADF80A00ADF80C00ADF810000C20ADF8B6
:103430000E0001A9254800F034FC012240F225517C
:10344000224800F0C6FC0121204800F0B6FC06B07E
:1034500010BD10B540F225511C4800F09FFD10B37F
:103460001A4800F01BFDC4B21A48008800F400405E
:10347000C8B91848008800F4804060B10A2C03D015
:1034800000201449088020E01248008840F40040E1
:103490001049088019E00D2C06D10E48008840F430
:1034A00080400C49088010E00A480088C0F30D00F5
:1034B00009490C5407480088401C06490880084602
:1034C0000088C72801DD0020088010BD00380140B9
:1034D000000801404C000020FE03002009488047FE
:1034E00009480047FEE7FEE7FEE7FEE7FEE7FEE7E6
:1034F000FEE7FEE7FEE7FEE704480549054A064BFE
:10350000704700009F17000831010008709B0020E1
:1035100070A10020709D0020709D002010B5044611
:10352000CC48844208D10121042000F02DFB002169
:10353000042000F029FB46E0C748844208D101215D
:10354000082000F021FB0021082000F01DFB3AE0DC
:10355000C248844208D10121102000F015FB00214F
:10356000102000F011FB2EE0BD48844208D101215B
:10357000202000F009FB0021202000F005FB22E0C4
:10358000B848844208D10121402000F0FDFA002112
:10359000402000F0F9FA16E0B348844208D1012136
:1035A000802000F0F1FA0021802000F0EDFA0AE01E
:1035B000AE48844207D10121801500F0E5FA0021D0
:1035C000A01500F0E1FA10BD10B50121084600F089
:1035D000DBFA0021012000F0D7FA10BD2DE9F041FF
:1035E000024600250026002000230024002791F831
:1035F00003C00CF00F0591F803C00CF0100CBCF1E7
:10360000000F03D091F802C04CEA050591F800C004
:10361000BCF1000F31D0146800202BE04FF0010CFA
:103620000CFA00F3B1F800C00CEA03069E4220D168
:1036300083004FF00F0C0CFA03F7BC4305FA03FCB0
:103640004CEA040491F803C0BCF1280F06D14FF0F6
:10365000010C0CFA00FCC2F814C00AE091F803C097
:10366000BCF1480F05D14FF0010C0CFA00FCC2F878
:1036700010C0401C0828D1D31460B1F800C0BCF1C0
:10368000FF0F34DD546800202EE000F1080C4FF0ED
:10369000010808FA0CF3B1F800C00CEA03069E42D8
:1036A00021D183004FF00F0C0CFA03F7BC4305FA4D
:1036B00003FC4CEA040491F803C0BCF1280F05D1C7
:1036C00000F1080C08FA0CF8C2F8148091F803C055
:1036D000BCF1480F07D100F1080C4FF0010808FABF
:1036E0000CF8C2F81080401C0828CED35460BDE806
:1036F000F0814FF6FF710180022181700421C170B9
:1037000070470246002093680B400BB1012000E097
:10371000002070470146886880B27047024600204A
:10372000D3680B400BB1012000E000207047014638
:10373000C86880B2704701617047416170470AB143
:10374000016100E041617047C16070474FF4803211
:103750000A4382618161826182698269704702469F
:103760000020434B18684FF68073184040EA02105F
:1037700008433F4B186070473E49C8617047F0B539
:103780000A46002300240021002500F00046B6F17F
:10379000004F02D1364EF16901E0354E7168C0F339
:1037A000034583B200F44016B6F5401F08D121F05E
:1037B00070612F4E766826F070662D4F7E6012E0A5
:1037C00000F48016B6F5801F06D1032606FA05F42C
:1037D000A14341F0706106E0460D360103FA06F69A
:1037E000B14341F0706122B1460D360103FA06F68D
:1037F000314300F00046B6F1004F02D11C4EF1619A
:1038000001E01B4E7160F0BD30B500228B071C0F2C
:103810000F2303FA04F2164B08338C1053F82430AC
:103820009343134C08348D1044F8253023468C10F4
:1038300053F824308C07240F00FA04F423430C4C73
:1038400008348D1044F8253030BD0A49DC31086059
:103850007047000000080140000C014000100140CA
:103860000014014000180140001C014000200140EC
:103870000000014000002042DF48006840F00100E5
:10388000DD49086008464068DC490840DA4948607C
:1038900008460068DA490840D749086008460068C9
:1038A00020F4802008600846406820F4FE0048604C
:1038B0004FF41F0088607047CF49096821F48031B8
:1038C000CD4A11601146096821F480211160B0F5DC
:1038D000803F03D0B0F5802F0ED106E0C6490968BD
:1038E00041F48031C44A116007E0C349096841F4DA
:1038F000A021C14A116000E000BF00BF704710B5B1
:1039000001460022002300204A11012A02D1BA4CAC
:10391000236806E0022A02D1B74C236A01E0B64CC4
:10392000636A01F01F02012494401C400CB1012085
:1039300000E0002010BD38B50020009000240025D4
:1039400000BF3120FFF7DBFF05460098401C0090C8
:103950000098B0F5A06F01D0002DF2D03120FFF714
:10396000CEFF08B1012400E00024204638BD014606
:103970000020A14A106820F0F80040EAC100106061
:103980007047A04908607047024600209A4B58686B
:1039900020F47C1042EA01031843974B58607047AB
:1039A00098490866704701460020934A506820F005
:1039B00003000843506070478F48406800F00C00D7
:1039C0007047014600208C4A506820F0F000084300
:1039D0005060704701460020874A506820F4E0603C
:1039E00008435060704701460020834A506820F425
:1039F000605040EAC1005060704729B17E4A527A57
:103A000002437D4B5A7204E07B4A527A82437A4BDE
:103A10005A7270477B49D8310860704701460020D0
:103A2000754A506820F440400843506070470021B8
:103A3000714A20321170704A82F82010012802D099
:103A400004280AD104E001216B4A2032117005E0FC
:103A50000521694A2032117000E000BF00BF7047A5
:103A60006949086070476449096A0143624A116202
:103A70007047654944390860704730B5002100221D
:103A8000002400235C4D6D6805F00C0121B1042970
:103A900005D0082923D105E05C4D056022E05B4D8F
:103AA00005601FE0544D6D6805F47012524D6D684D
:103AB00005F48034022505EB92421CB9544D554360
:103AC00005600BE04C4D6D6805F400351DB1504D9F
:103AD0005543056002E04D4D5543056002E04B4DF6
:103AE000056000BF00BF444D6D6805F0F001090995
:103AF000484D6B5C0568DD4045603F4D6D6805F4E1
:103B0000E061090A434D6B5C4568DD4085603A4DD4
:103B10006D6805F46051C90A3E4D6B5C4568DD4037
:103B2000C560354D6D6805F44041890B3A4D6B5CBD
:103B3000C568B5FBF3F5056130BD29B12E4A526960
:103B400002432D4B5A6104E02B4A526982432A4BAF
:103B50005A61704729B1284A92690243264B9A61FB
:103B600004E0254A92698243234B9A61704729B148
:103B7000214AD2690243204BDA6104E01E4AD2692D
:103B800082431D4BDA61704729B11B4AD268024358
:103B9000194BDA6004E0184AD2688243164BDA60A7
:103BA000704729B1144A12690243134B1A6104E0A9
:103BB000114A12698243104B1A6170471249403909
:103BC000086070470F49C86470470B49C871704757
:103BD0000948406A40F080700749486270470146D2
:103BE0000020054A92680A400AB1012000E0002046
:103BF0007047014988727047001002400000FFF8CA
:103C0000FFFFF6FE000042428004424200127A00AA
:103C100000093D004E0000205E00002010B5044663
:103C2000FB48844209D101218803FFF7ADFF002141
:103C30004FF48040FFF7A8FF32E0F648844209D1F4
:103C400001214804FFF7ADFF00214FF40030FFF7DA
:103C5000A8FF25E0F048844209D101218804FFF73C
:103C6000A0FF00214FF48020FFF79BFF18E0EB48F6
:103C7000844209D10121C804FFF793FF00214FF4CA
:103C80000020FFF78EFF0BE0E548844208D10121B8
:103C90000805FFF786FF00214FF48010FFF781FF32
:103CA00010BD2DE9F04786B005460E460024A24619
:103CB00000BFA1460027B08900B100BF2F462C8A63
:103CC0004CF6FF700440F08804432C82AC894EF619
:103CD000F3100440B08831890843718908430443D4
:103CE000AC81AC8A4FF6FF400440B0890443AC82FB
:103CF00001A8FFF7C2FEC648874202D1DDF810A036
:103D000001E0DDF80CA0A88900F4004040B10AEB06
:103D1000CA0000EB0A1031684900B0FBF1F807E077
:103D20000AEBCA0000EB0A1031688900B0FBF1F819
:103D30006420B8FBF0F004012009642101FB108924
:103D4000A88900F4004040B1322000EBC900B0FB6C
:103D5000F1F000F00700044308E0322000EB091006
:103D60006421B0FBF1F000F00F0004432C8106B099
:103D7000BDE8F0874FF41651016000218180C180B9
:103D800001810C21418100218181704710B50246DB
:103D90000020108A4FF2FF0318400B884C88234301
:103DA0008C882343CC8823431843108210BD002104
:103DB000018041808180C180704721B1828942F4B5
:103DC0000052828104E082894DF6FF731A4082819D
:103DD0007047F0B50346002400260025002040F679
:103DE0006A17B94200D100BF1846C1F3421401F06E
:103DF0001F06012707FA06F5012C01D10C3004E05B
:103E0000022C01D1103000E014301AB107682F43A2
:103E1000076002E00768AF430760F0BD1AB1838A0C
:103E20000B43838202E0838A8B4383827047028A3A
:103E30004FF6F0731A400282028A0A4302827047E8
:103E400082894FF2FF731A40828182890A438281FC
:103E5000704721B1828942F00202828104E08289A6
:103E60004FF6FD731A4082817047028A4FF6DF7366
:103E70001A400282028A0A430282704721B1028AF2
:103E800042F48042028204E0028A4BF6FF731A4039
:103E900002827047C1F30802828070470146888819
:103EA000C0F308007047818941F0010181817047AA
:103EB000028BD2B20283028B42EA01220283704754
:103EC000028B02F47F420283028B0A430283704713
:103ED00021B1828A42F02002828204E0828A4FF677
:103EE000DF731A408282704721B1828A42F0100249
:103EF000828204E0828A4FF6EF731A408282704712
:103F000021B1828A42F00802828204E0828A4FF65E
:103F1000F7731A408282704721B1828942F40042CD
:103F2000828103E08289C2F30E028281704721B14F
:103F3000828A42F40062828204E0828A4FF2FF7336
:103F40001A4082827047828A4FF6FB731A4082823F
:103F5000828A0A438282704721B1828A42F0020239
:103F6000828204E0828A4FF6FD731A408282704793
:103F700002460020B1F5007F00D100BF13880B403E
:103F80000BB1012000E00020704701F40072B2F58F
:103F9000007F00D100BFCA430280704770B502465F
:103FA000002400230025002040F66A16B14200D10B
:103FB00000BFC1F3421501F01F03012606FA03F307
:103FC000012D02D19689334006E0022D02D1168AD6
:103FD000334001E0968A33400C12012606FA04F4BD
:103FE0001688344013B10CB1012000E0002070BDF0
:103FF00010B50022002340F66A14A14200D100BF90
:104000000A1201249440A3B2DC43048010BD0000D6
:10401000003801400044004000480040004C00408F
:104020000050004031490143314A1160704770B57A
:10403000002100230F22C47804B32D4C246804F41B
:10404000E064C4F5E064210AC1F10403CA40447885
:1040500004FA03F18478144021430901254C0678C1
:10406000A155047804F01F050124AC4005786D11BA
:10407000AD0005F1E025C5F8004109E0047804F041
:104080001F050124AC401C4D0678761145F82640EA
:1040900070BD1A4A0A400243154B1B1F1A60704735
:1040A00039B1134A121D12680243114B1B1D1A60CD
:1040B00006E00F4A121D126882430D4B1B1D1A6049
:1040C0007047042808D14FF0E021096941F004014C
:1040D0004FF0E022116107E04FF0E021096921F083
:1040E00004014FF0E0221161704700000000FA0562
:1040F0000CED00E000E400E080E100E080FFFF1F45
:1041000010B50446BE48844208D101218014FFF74F
:104110003BFD0021A014FFF737FD16E0B9488442AB
:1041200008D101210014FFF73CFD00212014FFF706
:1041300038FD0AE0B448844207D10121C013FFF7DB
:1041400030FD0021E013FFF72CFD10BD10B500225B
:10415000028802F441520B884C8823438C88234305
:10416000CC8823430C8923434C8923438C892343E4
:10417000CC8923431A430280838B4FF2FF74234080
:1041800083830B8A038210BD2DE9F04F85B005466D
:104190000C464FF0000902274FF000084FF0010BCA
:1041A0000026B246A88B4FF240010840A8830220A7
:1041B0002884B5F81C90A068022801D100BF38E01F
:1041C000A08810B94FF0010B01E04FF0020B8D48B1
:1041D000854200D100E000BF6846FFF74EFCDDF8E5
:1041E00000A0E088B0F5007F0AD14FEA1A2000EB6A
:1041F00080004000A168B0FBF1F0401D86B20BE0EA
:104200004FEA4B10BAFBF0F000EB80004000A168D1
:10421000B0FBF1F0401D86B20A20B6FBF0F606F0C6
:104220000108A6EB0800C0F34F074FF6FF7000EA45
:104230000828022F01DBFF2F02DD02274FF00008C4
:10424000E08840EA080038432884A088A189084310
:10425000618808432188084340F4006040EA090966
:10426000A5F81C9005B0BDE8F08F002101804180C9
:104270008180C180018141818181C18107210182C9
:1042800070470021018041808180C18002218160CE
:1042900000218181704721B1028842F040020280F2
:1042A00004E002884FF6BF731A400280704721B1C4
:1042B000828B42F48062828304E0828B4FF6FF336C
:1042C0001A408283704730B5002400230C11012569
:1042D000A540ABB21AB185881D43858002E0858870
:1042E0009D43858030BD1AB183880B43838002E0F3
:1042F00083888B438380704781817047014688891A
:1043000070474FF6FF62914204D0028842F48072F7
:10431000028004E002884FF6FF631A400280704773
:1043200021B1828842F00402828004E082884FF644
:10433000FB731A408280704702884FF2FF731A4065
:10434000028002880A4302807047018841F480514C
:104350000180704721B1028842F40052028004E0DB
:1043600002884DF6FF731A40028070470246002013
:10437000012901D0108B00E0908A70470146088A1D
:104380007047B1F5804F04D1028842F48042028028
:1043900004E002884BF6FF731A4002807047024621
:1043A000002013890B400BB1012000E00020704772
:1043B000CA4302817047F0B5024600200024002362
:1043C000002501F00F070126BE40B4B20B110126F3
:1043D0009E40B3B2968806EA03051689264016B1B8
:1043E0000DB1012000E00020F0BD10B5002201F069
:1043F0000F040123A3409AB2D343038110BD0000F0
:104400000030014000380040003C004010B5044638
:10441000FE48844208D10121C014FFF7B5FB0021FA
:10442000E014FFF7B1FBC4E0B4F1804F08D10121E3
:104430000846FFF7B6FB00210120FFF7B2FBB8E00A
:10444000F348844208D101210220FFF7AAFB002192
:104450000220FFF7A6FBACE0EE48844208D1012120
:104460000420FFF79EFB00210420FFF79AFBA0E049
:10447000E948844208D101210820FFF792FB00217E
:104480000820FFF78EFB94E0E448844208D1012124
:104490001020FFF786FB00211020FFF782FB88E049
:1044A000DF48844208D101212020FFF77AFB002158
:1044B0002020FFF776FB7CE0DA48844208D1012116
:1044C0004014FFF761FB00216014FFF75DFB70E013
:1044D000D548844209D10121C804FFF755FB0021CA
:1044E0004FF40020FFF750FB63E0D048844209D12D
:1044F00001210805FFF748FB00214FF48010FFF76A
:1045000043FB56E0CA48844209D101214805FFF720
:104510003BFB00214FF40010FFF736FB49E0C54894
:10452000844208D101214020FFF73BFB00214020BD
:10453000FFF737FB3DE0C048844208D101218020CD
:10454000FFF72FFB00218020FFF72BFB31E0BB485A
:10455000844208D101218015FFF723FB0021A0151B
:10456000FFF71FFB25E0B648844209D1012108046A
:10457000FFF70AFB00214FF48030FFF705FB18E03E
:10458000B048844209D101214804FFF7FDFA002117
:104590004FF40030FFF7F8FA0BE0AB48844208D143
:1045A00001218804FFF7F0FA00214FF48020FFF783
:1045B000EBFA10BD00220288944B98420ED0994B22
:1045C00098420BD0B0F1804F08D0914B984205D063
:1045D000904B984202D0904B984204D14FF68F7383
:1045E0001A404B881A438D4B984207D08C4B984207
:1045F00004D04FF6FF431A40CB881A4302808B88C1
:1046000083850B880385814B98420BD0854B98425C
:1046100008D08B4B984205D08A4B984202D08A4BE7
:10462000984201D10B7A038601238382704770B5CB
:10463000002400220023058C4FF6FE7635400584C9
:10464000028C8388048B4FF68F752C40B51E2C404E
:104650000D882C43751E2A400D892A434D882A4314
:104660006A4DA8420BD06F4DA84208D0744DA842A5
:1046700005D0744DA84202D0734DA84213D14FF615
:10468000F7752A404D892A434FF6FB752A408D88DD
:104690002A434FF6FF652B404FF6FF552B408D897F
:1046A0002B43CD892B4383800483CD888586028468
:1046B00070BD70B5002400220023058C4FF6EF7604
:1046C00035400584028C8388048B48F6FF752C40A6
:1046D0004FF6FF452C400D884FF6FF7606EA05257C
:1046E0002C434FF6DF752A400D8906EA05152A434B
:1046F0004D8806EA05152A43444DA84202D0494D8B
:10470000A8421DD14FF67F752A404D894FF6FF769E
:1047100006EA05152A434FF6BF752A408D8806EA3A
:1047200005152A434FF6FF352B404FF2FF752B40FE
:104730008D8906EA85052B43CD8906EA85052B433D
:1047400083800483CD880587028470BD70B5002402
:1047500000220023058C4FF6FF6635400584028C4D
:104760008388848B4FF68F752C404FF6FC752C4058
:104770000D882C434FF6FF552A400D894FF6FF76E2
:1047800006EA05252A434D8806EA05252A431F4DDA
:10479000A84202D0234DA8421DD14FF2FF752A40F6
:1047A0004D894FF6FF7606EA05252A434FF6FF3579
:1047B0002A408D8806EA05252A434EF6FF752B40D0
:1047C0004DF6FF752B408D8906EA05152B43CD89E3
:1047D00006EA05152B4383808483CD888587028470
:1047E00070BD70B5002200230024058C4EF6FF76C4
:1047F00035400584038C8488828B48F6FF752A40F7
:104800004FF6FF452A400D8820E00000002C0140B3
:104810000004004000080040000C00400010004070
:104820000014004000340140004C014000500140A1
:104830000054014000180040001C004000200040CF
:104840000040014000440140004801404FF6FF761F
:1048500006EA05252A434DF6FF752B400D8906EA29
:1048600005352B434D8806EA05352B43FA4DA84202
:1048700002D0FA4DA84208D14BF6FF752C408D8925
:104880004FF6FF7606EA85152C4384808283CD8817
:10489000A0F84050038470BD828B4FF2FF331A4062
:1048A0008283828B4FF6FF7303EA01231A438283CC
:1048B0007047F0B50C461546002200210026078CF3
:1048C0004EF6FF7C07EA0C070784828B018C4FF6BB
:1048D000FF7707EA043640F6FF473A404FF6FF7786
:1048E00007EA05273A434FF6FF7707EA03373A43CB
:1048F000D94FB8420ED0D94FB8420BD0B0F1804F4B
:1049000008D0D74FB84205D0D64FB84202D0D64FC4
:10491000B84206D14DF6FF77394046F48057394307
:1049200005E047F6FF57394044F480573943828306
:104930000184F0BD828B4FF6F3731A408283828B21
:104940000A4382837047F0B50C46154600220021C9
:104950000026078C4FF6FF6C07EA0C070784828B52
:10496000018C4FF6FF7707EA04264FF60C773A40A2
:104970004FF6FF7707EA03172F433A43B64FB84283
:104980000ED0B64FB8420BD0B0F1804F08D0B44F24
:10499000B84205D0B34FB84202D0B34FB84206D1A7
:1049A0004FF6FF57394046F48077394305E04FF220
:1049B000FF57394044F48077394382830184F0BD46
:1049C000028B4FF2FF331A400283028B4FF6FF73C4
:1049D00003EA01231A4302837047F0B50C461546DB
:1049E000002200210026078C4FF6EF7C07EA0C0717
:1049F0000784028B018C4FF6FF7707EA041640F616
:104A0000FF473A404FF6FF7707EA03373A434FF63E
:104A1000FF7707EA05273A438F4FB8420ED08F4FF2
:104A2000B8420BD0B0F1804F08D08D4FB84205D0BE
:104A30008C4FB84202D08C4FB84206D14FF6DF7788
:104A4000394046F01007394305E04FF65F773940AB
:104A500044F01007394302830184F0BD028B4FF606
:104A6000F3731A400283028B0A4302837047F0B546
:104A70000C46154600220021068C4FF6FE773E407C
:104A80000684028B018C4FF60C7632407E1C06EABF
:104A900003162E433243704EB0420ED06F4EB042DA
:104AA0000BD0B0F1804F08D06D4EB04205D06D4EA6
:104AB000B04202D06C4EB04206D14FF6FD76314086
:104AC00044F00106314305E04FF6F576314044F0FD
:104AD0000106314302830184F0BD70B505460C46E2
:104AE0005D4885420ED05D4885420BD0B5F1804FC0
:104AF00008D05B48854205D05A48854202D05A48C2
:104B0000854200D100E000BF208850B92389A288E7
:104B100061882846FFF7ABFFE1882846FFF79EFF34
:104B200025E0208804280AD12389A28861882846A4
:104B3000FFF753FFE1882846FFF742FF17E0208880
:104B400008280AD12389A28861882846FFF7FBFE3E
:104B5000E1882846FFF7EEFE09E02389A2886188F4
:104B60002846FFF7A6FEE1882846FFF795FE70BDB0
:104B70002DE9F04105460C4600260127608808B95A
:104B8000022600E00026A088012801D1022700E0CB
:104B900001272088A0B92389A28861882846FFF7C9
:104BA00066FFE1882846FFF759FF23893A463146D8
:104BB0002846FFF712FFE1882846FFF701FF13E0C0
:104BC0002389A28861882846FFF707FFE1882846E5
:104BD000FFF7F6FE23893A4631462846FFF747FF9E
:104BE000E1882846FFF73AFFBDE8F0810A884B8844
:104BF0001A438B881A43CB881A430B891A434B8973
:104C00001A438B891A43A0F8442070474FF6FF716E
:104C1000818000210180C1804180017270470021A4
:104C2000018041808180C180018141818181C18178
:104C30007047002101804180012181800021C180D5
:104C4000018170470021018041808180C180018104
:104C50004181818170470000002C014000340140F7
:104C60000004004000080040000C004021B1028810
:104C700042F00102028004E002884FF6FE731A40FF
:104C80000280704731B1B0F8442042F40042A0F8ED
:104C9000442005E0B0F84420C2F30E02A0F84420FE
:104CA00070471AB183890B43838102E083898B4368
:104CB000838170478182704741EA0203A0F848303F
:104CC00070471AB183890B43838102E083898B4348
:104CD0008381704701894FF6F87211400181704756
:104CE0000A46002101894FF68F7319401143018153
:104CF000704730B504460D4629462046FFF7F0FFC1
:104D0000208940F00700208130BD2DE9F0410446A4
:104D10000D4616461F46602D06D13B460122314600
:104D20002046FFF75AFE05E03B4601223146204669
:104D3000FFF79DFE29462046FFF7D2FF208940F06D
:104D400007002081BDE8F08130B50C4600210189C3
:104D5000C9B24FF6FF7505EA0325154325432943DC
:104D6000018130BD2DE9F04105460E4617469846B3
:104D7000002443463A4631462846FFF7E5FF2C8992
:104D80004FF6F870044044F007044FF68F7004406B
:104D900044F070042C81BDE8F081F0B504460D4666
:104DA00016461F463B46324629462046FFF7CCFFB3
:104DB000208940F480402081F0BD018582827047C7
:104DC0000A46002101884FF68F7319401143018074
:104DD0007047F0B50C4615461E4600210022002300
:104DE0000189028B038C4FF6F877394021434FF647
:104DF000FC473A4040F201173A434FF6DD773B401B
:104E00004FF6FF7707EA06172F433B4301810283E2
:104E10000384F0BD0A460021018B4FF68F731940C1
:104E20001143018370470A460021018B48F6FF7346
:104E300019404FF6FF7303EA0223194301837047B9
:104E40000A460021818B4FF68F73194011438183ED
:104E500070470A460021818B48F6FF7319404FF6D0
:104E6000FF7303EA022319438183704721B102884B
:104E700042F08002028004E002884FF67F731A40FD
:104E80000280704721B1828842F00402828004E0EF
:104E900082884FF6FB731A408280704721B1828866
:104EA00042F00802828004E082884FF6F7731A40CD
:104EB0008280704721B1828842F00102828004E042
:104EC00082884FF6FE731A40828070470A4600219E
:104ED000018B4FF6F77319401143018370470A465F
:104EE0000021018B4FF2FF7319404FF6FF7303EA65
:104EF00002231943018370470A460021818B4FF634
:104F0000F77319401143818370470A460021818B52
:104F10004FF2FF7319404FF6FF7303EA0223194360
:104F2000818370470A460021018B4FF6FB731940BD
:104F30001143018370470A460021018B4FF6FF336E
:104F400019404FF6FF7303EA0223194301837047A8
:104F50000A460021818B4FF6FB7319401143818370
:104F600070470A460021818B4FF6FF3319404FF6F8
:104F7000FF7303EA02231943818370470A46002125
:104F8000018B4FF67F7319401143018370470A4626
:104F90000021018BC1F30E014FF6FF7303EA0223D8
:104FA0001943018370470A460021818B4FF67F73B6
:104FB00019401143818370470A460021818BC1F358
:104FC0000E014FF6FF7303EA0223194381837047F2
:104FD0000A460021018C4FF6FD73194011430184EC
:104FE00070470A460021018C4FF6F77319401143B0
:104FF000018470470A460021018C4FF6DF73194087
:105000004FF6FF7303EA02131943018470470A46FF
:105010000021018C4FF67F7319404FF6FF7303EAAE
:1050200002131943018470470A460021018C4FF690
:10503000FF5319404FF6FF7303EA0223194301841B
:1050400070470A460021018C4FF2FF7319404FF65A
:10505000FF7303EA02231943018470470A460021C3
:10506000018C4DF6FF7319404FF6FF7303EA0233CC
:1050700019430184704730B5002301248C40A3B24A
:10508000048C9C430484048C02FA01F5ADB22C43D9
:10509000048430BD30B5002304248C40A3B2048CBA
:1050A0009C430484048C02FA01F5ADB22C430484C1
:1050B00030BD70B503460020002418461830012585
:1050C0008D40ACB21D8CA5431D8409B1082909D1BE
:1050D00000EB6100056825F0700505600568154363
:1050E00005600EE00D1FC5F34E052844056825F444
:1050F000E045056005684FF6FF7606EA022635436F
:10510000056070BD21B1028842F00202028004E015
:1051100002884FF6FD731A400280704721B1028861
:1051200042F00402028004E002884FF6FB731A404A
:105130000280704721B1828842F08002828004E0C0
:1051400082884FF67F731A408280704702884FF63C
:10515000F7731A40028002880A43028070478288EF
:105160004FF68F731A40828082880A43828070478C
:1051700002894FF6F8731A40028102890A430281BC
:10518000704702894FF67F731A40028102890A43F1
:10519000028170478184704781857047818670479E
:1051A0000187704781877047A0F8401070470288D8
:1051B0004FF6FF431A40028002880A43028070477C
:1051C0000146888E70470146088F70470146888FD8
:1051D00070470146B1F8400070470146888C70471F
:1051E0000146088D704702460020138A0B400BB120
:1051F000012000E000207047CA430282704730B5AA
:105200000246002000230024158A05EA010395893F
:1052100005EA010413B10CB1012000E0002030BD0B
:10522000CA4302827047000070B503460C4603E093
:1052300014F8015B03F8015B1500A2F10102F7D13C
:1052400070BD30B5034601E003F8011B1400A2F164
:105250000102F9D130BD00B55A494FF40C62C8685B
:105260000021FFF7EEFF57494FF40C4288680021F8
:10527000FFF7E7FF01205349087400BD0022002119
:1052800006E05048C06830F8110000B1521C491CBB
:10529000B1F58C6FF5D3642050434FF48C63B0FBB1
:1052A000F3F0C0B270472DE9F04106460024A04655
:1052B0004448007C10B94349086880471EB94FF044
:1052C000FF30BDE8F081C6F34F1506F01F0008B1AE
:1052D000681C85B240F25F441AE03A48C06830F872
:1052E000140020B908F101001FFA80F801E04FF026
:1052F0000008A8450BD1002705E03248C068E11935
:1053000020F811507F1CAF42F7D36001D9E7641E2B
:10531000002CE2DA4FF0FF30D3E770B5054629489C
:10532000007C20B9274908688047012070BDB5F589
:105330000C4F11D269092348C06830F811200024AD
:1053400006E000201F4BDB680E1923F81600641CD2
:105350009442F6DB0020E9E70220E7E770B5044657
:1053600004B970BD17488068251A2846FFF7D5FF95
:1053700000BFF6E770B505462846FFF794FF0446E0
:10538000601C08B9002070BD0E4880682044FAE710
:1053900070B506460C462046FFF785FF0546681C9B
:1053A00008B9002070BD074989684819224631466E
:1053B000FFF73AFF3046FFF7D1FF024880682844E4
:1053C000F0E700006400002010B58CB004461E23F6
:1053D0000BAA03A9204600F0AFFE0090009810B180
:1053E00001200CB010BD9DF82C00044400200B904F
:1053F0000EE040489DF82C2050F8221003A800F041
:1054000003FE00B908E09DF82C00401CC0B20B90D0
:105410009DF82C000728ECD300BF9DF82C0007282E
:1054200063D2DFE800F004053C5E6564630000BF02
:1054300031A008F0B7F831A008F0B4F83FA008F0A8
:10544000B1F84EA008F0AEF85CA008F0ABF86BA085
:1054500008F0A8F879A008F0A5F886A008F0A2F84E
:105460008BA008F09FF890A008F09CF894A008F09A
:1054700099F899A008F096F89EA008F093F8A4A0D7
:1054800008F090F8B0A008F08DF8BDA008F08AF8F8
:10549000C8A008F087F8D4A008F084F89AE216A013
:1054A00008F080F8E0A008F07DF800200B900EE0F6
:1054B000ED4800689DF82C2000EBC2004168EBA08D
:1054C00008F070F89DF82C00401CC0B20B90E64824
:1054D000007D9DF82C108842EADC07A008F062F8F5
:1054E00078E205A008F05EF8C4E171E245E219E255
:1054F000ECE10000780000200D0A00002D2D2D2D7C
:105500002D2D2D2D2D2D2D2D2D2D2D2D2D2D2D2DCB
:105510002D2D2D2D55534D4152542056332E312DC6
:105520002D2D2D2D2D2D2D2D2D2D2D2D2D2D2D2DAB
:105530002D2D2D2D2D2D2D200D0A00002020202079
:1055400055534D415254CAC7D3C9414C49454E5495
:10555000454BBFAAB7A2B5C4D2BBB8F6C1E9C7C90B
:10556000B5C4B4AEBFDAB5F7CAD4BBA5BDBBD7E9E5
:10557000BCFE2CCDA8B9FD200D0A0000CBFC2CC42C
:10558000E3BFC9D2D4CDA8B9FDB4AEBFDAD6FACA4A
:10559000D6B5F7D3C3B3CCD0F2C0EFC3E6B5C4C819
:1055A000CEBACEBAAFCAFD2CB2A2D6B4D0D02ED2CB
:1055B000F2B4CB2CC4E3BFC90D0A0000D2D4CBE6B1
:1055C000D2E2B8FCB8C4BAAFCAFDB5C4CAE4C8EBED
:1055D000B2CECAFD28D6A7B3D6CAFDD7D628313059
:1055E0002F3136BDF8D6C629A1A2D7D6B7FBB4AEA7
:1055F000A1A2BAAFCAFDC8EB0D0A0000BFDAB5D848
:10560000D6B7B5C8D7F7CEAAB2CECAFD292CB5A554
:10561000B8F6BAAFCAFDD7EEB6E0D6A7B3D63130EA
:10562000B8F6CAE4C8EBB2CECAFD2CB2A2D6A7B374
:10563000D6BAAFCAFDB7B5200D0A0000BBD8D6B5A3
:10564000CFD4CABE2ED0C2D4F6B2CECAFDCFD4CAF1
:10565000BEBDF8D6C6C9E8D6C3B9A6C4DC2CD0C234
:10566000D4F6BDF8D6C6D7AABBBBB9A6C4DC2E0DEE
:105670000A000000BCBCCAF5D6A7B3D63A77777744
:105680002E6F70656E6564762E636F6D0D0A000077
:1056900055534D415254D3D037B8F6CFB5CDB3C3DF
:1056A000FCC1EE3A0D0A00003F3A202020202020C5
:1056B000BBF1C8A1B0EFD6FAD0C5CFA20D0A000049
:1056C00068656C703A202020BBF1C8A1B0EFD6FA13
:1056D000D0C5CFA20D0A00006C6973743A20202057
:1056E000BFC9D3C3B5C4BAAFCAFDC1D0B1ED0D0AAD
:1056F0000A00000069643A2020202020BFC9D3C3DB
:10570000BAAFCAFDB5C44944C1D0B1ED0D0A0A0013
:105710006865783A20202020B2CECAFD3136BDF827
:10572000D6C6CFD4CABE2CBAF3B8FABFD5B8F12BBF
:10573000CAFDD7D6BCB4D6B4D0D0BDF8D6C6D7AA89
:10574000BBBB0D0A0A0000006465633A20202020DC
:10575000B2CECAFD3130BDF8D6C6CFD4CABE2CBA3F
:10576000F3B8FABFD5B8F12BCAFDD7D6BCB4D6B4BE
:10577000D0D0BDF8D6C6D7AABBBB0D0A0A00000020
:1057800072756E74696D653A312CBFAAC6F4BAAFF2
:10579000CAFDD4CBD0D0BCC6CAB13B302CB9D8B12D
:1057A000D5BAAFCAFDD4CBD0D0BCC6CAB13B0D0A66
:1057B0000A000000C7EBB0B4D5D5B3CCD0F2B1E04D
:1057C000D0B4B8F1CABDCAE4C8EBBAAFCAFDC3FBD6
:1057D000BCB0B2CECAFDB2A2D2D4BBD8B3B5BCFC69
:1057E000BDE1CAF82E0D0A002D2D2D2D2D2D2D2DAC
:1057F0002D2D2D2D2D2D2D2D2D2D2D2D2D2D2D2DD9
:105800002D2D414C49454E54454B2D2D2D2D2D2DE3
:105810002D2D2D2D2D2D2D2D2D2D2D2D2D2D2D2DB8
:105820002D2D2D200D0A00002D2D2D2D2D2D2D2D52
:105830002D2D2D2D2D2D2D2D2D2D2D2D2D2D2D2D98
:105840002DBAAFCAFDC7E5B5A52D2D2D2D2D2D2DBA
:105850002D2D2D2D2D2D2D2D2D2D2D2D2D2D2D2D78
:105860002D2D2D2D200D0A006401002025730D0A19
:1058700000000000F1A007F095FE00200B901AE058
:10588000FE4909689DF82C2001EBC20101AB02AA78
:10589000486803A900F076FCF84800689DF82C10D1
:1058A00050F8312003A9F6A007F07CFE9DF82C00EB
:1058B000401CC0B20B90F148007D9DF82C1088422E
:1058C000DEDCAFF2CC3007F06DFE83E0AFF2D83013
:1058D00007F068FE0BAA03A9204600F02FFD9DF8F3
:1058E0002C00C8B9694603A800F0C1FB0B909DF8D5
:1058F0002C0020B9E7A0009907F054FE0EE09DF8B7
:105900002C00042801D002206BE5E5A007F04AFE38
:105910000120DA49C87501E0022062E5DFA007F046
:1059200041FE57E0DDA007F03DFE0BAA03A920468B
:1059300000F004FD9DF82C00C8B9694603A800F0EA
:1059400096FB0B909DF82C0020B9DAA0009907F087
:1059500029FE0EE09DF82C00042801D0022040E52D
:10596000D7A007F01FFE0020C449C87501E002203F
:1059700037E5CAA007F016FE2CE0C8A007F012FE1B
:105980000BAA03A9204600F0D9FC9DF82C00C8B949
:10599000694603A800F06BFB0B909DF82C0078B9CA
:1059A000B649009881F8EC00084690F8EC0018B170
:1059B000C8A007F0F7FD07E0CDA007F0F3FD03E076
:1059C00002200EE502200CE5B4A007F0EBFD01E09B
:1059D000012006E500BF002003E5CC48008820F048
:1059E0000100CA4908804FF6FF70C8491C31088081
:1059F0000020C64914310880A049C1F8F000704762
:105A0000C248008800F0010040B19C48D0F8F00086
:105A10004FF6FF7108449949C1F8F0009748D0F853
:105A2000F000BA491431098808449449C1F8F000DB
:105A30000846D0F8F000704710B5B448008800F070
:105A4000010058B18D49086980470020AF491431E1
:105A500008804FF47A70AD491C310880AB4800884B
:105A600020F00100A949088010BD7FB505460C460D
:105A700001210420FEF77BF8ADF80850ADF8044092
:105A80000020ADF80A00ADF8060001A99F481038C3
:105A9000FEF790FD012241219C481038FFF701F9E3
:105AA0001E208DF8000003208DF801008DF8020003
:105AB00001208DF803006846FEF7B9FA01219348EA
:105AC0001038FFF7D3F87FBD10B5044604EBC400CF
:105AD00000EB04100122C2EB800081B24FF47A7017
